{
  "contractName": "Test",
  "abi": [
    {
      "inputs": [],
      "name": "test2",
      "outputs": [
        {
          "internalType": "uint256",
          "name": "data",
          "type": "uint256"
        }
      ],
      "stateMutability": "pure",
      "type": "function"
    }
  ],
  "bytecode": "0x608060405234801561001057600080fd5b5060c88061001f6000396000f3fe6080604052348015600f57600080fd5b506004361060285760003560e01c806366e41cb714602d575b600080fd5b60336047565b604051603e9190606f565b60405180910390f35b60006040516468656c6c6f6000820152600081015191505090565b6069816088565b82525050565b6000602082019050608260008301846062565b92915050565b600081905091905056fea2646970667358221220aadd723ecf56cb7cd189497cd374dbd0e8a2086e7b7bf0a5ec4af7e1a33b1ef764736f6c63430008040033",
  "immutableReferences": {},
  "source": "// SPDX-License-Identifier: MIT\npragma solidity >=0.4.22 <0.9.0;\n\ncontract Test {\n    // function test(uint256 testNum) external pure returns(uint data) {\n\n    //     assembly {\n    //         mstore(0x40, 0x90)\n    //     }\n\n    //     uint8[3] memory items = [1,2,3];\n\n    //     assembly {\n    //         data := mload(0x90)\n    //     }\n    // }\n\n\n    function test2() external pure returns(uint data) {\n\n        assembly {\n            let fmp := mload(0x40)\n            //hello\n            mstore(add(fmp, 0x00), 0x68656C6C6F)\n            data := mload(add(fmp, 0x00))\n        }\n    }\n}",
  "sourcePath": "/Users/alanoteles/alano/courses/udemy/solidity_next/blockchain/faucet/contracts/Test.sol",
  "compiler": {
    "name": "solc",
    "version": "0.8.4+commit.c7e474f2.Emscripten.clang"
  },
  "schemaVersion": "3.4.13",
  "updatedAt": "2023-05-23T21:22:14.633Z",
  "devdoc": {
    "kind": "dev",
    "methods": {},
    "version": 1
  },
  "userdoc": {
    "kind": "user",
    "methods": {},
    "version": 1
  }
}